:100000000C9435020C946D020C946D020C94BB217F
:100010000C946D020C946D020C946D020C946D02A4
:100020000C946D020C946D020C94E1260C94B5278F
:100030000C9425200C946D020C946D020C946D02AE
:100040000C946D020C946D020C946D020C946D0274
:100050000C946D020C94C8200C946D020C946D02EB
:100060000C946D020C946D020C946D020C946D0254
:100070000C946D020C946D020C946D020C946D0244
:100080000C946D020C946D020C946D020C946D0234
:100090000C946D020C946D020C946D020C946D0224
:1000A0000C946D020C946D020C946D0229001E00DC
:1000B0001F002000210022002B0014001A0008005D
:1000C00015001700E10004001600070009000A00EF
:1000D000E0001D001B000600190005000000215271
:1000E0002A00E0002C004A002A00270026002500F4
:1000F000240023002D00130012000C0018001C0027
:10010000340033000F000E000D000B0031003800EA
:100110003700360010001100000022524C00E700AA
:100120002800E60035021E021F02200221022202E0
:10013000007C01000100010001002F0001004A00C5
:100140004B004E004D00260201000100010001009D
:1001500001000100000001002A00E0004A002C001C
:100160004C00270226022502240223022E0201004F
:10017000610060005F00300031022D005E005D0014
:100180005C0027022D022E005B005A00590001007E
:1001900000000100E400E700E600280045003A0006
:1001A0003B003C003D003E00010001002278207829
:1001B00021782F0001005000520051004F0026020C
:1001C0000100010001000100010001000000010028
:1001D0002A00E0004A002C00440043004200410095
:1001E00040003F00A80047004900530001003000D4
:1001F000A9000100AB00AE00AC002702AA0001007C
:10020000010001000100010000000100E400007C89
:10021000E6002800000101010101010101010202C3
:1002200002020202020202030303030303030304A4
:10023000040404040404050505050506060606066F
:10024000070707070708080808090909090A0A0A29
:100250000B0B0B0C0C0C0D0D0D0E0E0E0F0F0F10CB
:100260001011111112121313141415151616171755
:10027000181819191A1A1B1B1C1D1D1E1E1F2020C1
:10028000212222232424252626272829292A2B2C0B
:100290002D2D2E2F30313232333435363738393A2E
:1002A0003B3C3D3E3F404142434445464748494A26
:1002B0004C4D4E4F50515354555658595A5B5D5EF4
:1002C0005F616264656668696B6C6D6F707273758F
:1002D00077787A7B7D7E8082838587888A8C8E8FF3
:1002E00091939596989A9C9EA0A2A3A5A7A9ABAD21
:1002F000AFB1B3B5B7BABCBEC0C2C4C6C9CBCDCF0F
:10030000D1D4D6D8DBDDDFE2E4E7E9EBEEF0F3F5BC
:10031000F8FAFDFF1E035300630079006C006C00C7
:100320006100200045006C006900740065002D002C
:100330004300000024034200610073007400610068
:100340007200640020004B006500790062006F00BD
:1003500061007200640073000000040309040902D4
:100360003B00020100A0FA090400000103010100A2
:100370000921110100012244000705810308000141
:1003800009040100010300000009211101000122FC
:100390007B0007058203200001120100020000001B
:1003A00008F8A8291800020102000105010902A1AC
:1003B0000185020901A10005091901290815002577
:1003C0000195087501810205010930093115812562
:1003D0007F95027508810609381581257F9501757D
:1003E000088106050C0A38021581257F95017508DC
:1003F0008106C0C005010980A101850319012AB742
:1004000000150126B700950175108100C0050C0983
:1004100001A101850419012AA002150126A0029557
:100420000175108100C005010906A101050719E049
:1004300029E71500250195087501810295017508C8
:1004400081010507190029FF150026FF0095067593
:100450000881000508190129051500250195057574
:10046000019102950175039101C011241FBECFEFC8
:10047000DAE0DEBFCDBF04B603FE18C08091ED0404
:100480009091EE04A091EF04B091F0048730904B6E
:10049000A740B04B59F41092ED041092EE04109264
:1004A000EF041092F004E0E0F8E3099512E0A0E018
:1004B000B1E0E2E2F5E502C005900D92A83BB1077C
:1004C000D9F724E0A8EBB2E001C01D92AD3EB2071F
:1004D000E1F70E940E150C943B2A0C940000833027
:1004E000B8F46A30A8F4463098F450E096E0699F7A
:1004F000400D511D1124FA019CE3899FE00DF11D6F
:100500001124EE0FFF1FE455FF4F8591949108953C
:1005100081E090E008950E946F02089581E00895BF
:100520000E948E02089581E008950E948E0208952F
:100530000E949502089508950E949B020895A6E0E6
:10054000B0E0E5EAF2E00C94AB2949835A839E833C
:100550003091BF0289819A8131111AC03E813323C3
:1005600099F0222389F00E944508182F682F89816D
:100570009A810E94210869817A81812F0E94100F3F
:100580002696E3E00C94C7290E943308182FF3CF76
:100590000E94450869817A81F1CFFC01262F4081B4
:1005A000518162817381848195810E949F020895A7
:1005B000CF93DF93EC0161E00E94CD02BE010E9467
:1005C0009002DF91CF910895CF93DF93EC0160E02B
:1005D0000E94CD02BE010E949C02DF91CF9108953E
:1005E00081E008950E94F0020895CF93C82F0E94E1
:1005F000F6068C2F0E94F2022FEF84E39CE021503C
:1006000080409040E1F700C00000CF91089581E064
:100610000E94F5020E94EC20089580E00E94F502FD
:100620000E94102108950F931F93CF93DF938C01A5
:1006300061E00E94CD02EC01B8010E949802811194
:1006400006C080E0DF91CF911F910F910895B8010E
:10065000CE010E94881E8823A1F3B801CE010E941A
:10066000B21A882371F3B801CE010E94881A882338
:1006700041F3B801CE010E94ED19882311F3F8016E
:100680008581882361F0C330FCE7DF07E9F058F487
:10069000C115ECE7DE07A9F0C130DC47B9F0C801AD
:1006A0000E949302CFCFCB358CE7D807A9F0CC3589
:1006B000ECE7DE0771F0CA35DC4789F70E945C0C75
:1006C000EECF0E940703BDCF0E94640C0E940D0371
:1006D000B8CF0E94520CE3CF0E94600CE0CF0E9482
:1006E00002200E946C170E949E0381E00E948F18D6
:1006F00008950E94A20380E00E948F180E940720A4
:100700000895089581E008950895CF93DF93D82F39
:100710000E948203C82F882319F08D2F0E94840322
:100720008C2FDF91CF9108950895CF93C82F0E9409
:1007300081038C2F0E948503CF91089580E00E9451
:10074000950308950E94D11E0E9495030895CF93AA
:100750000E94D11EC82F8091BA028C1779F0C093E5
:10076000BA020E9491206093BB027093BC028093F6
:10077000BD029093BE028C2F0E949503CF910895E5
:10078000ADE0B0E0E6ECF3E00C94AC294887598783
:100790006A877B878C879D8791110E94920B1F82AD
:1007A00086E0FE013896DE01119601900D928A9541
:1007B000E1F78D8181110DC029813A814B815C81E6
:1007C0006D817E818F810E94DC0A2D96E2E00C947F
:1007D000C829CE0101960E94D8028111EDCFF5CF34
:1007E000FC012481213021F4808191810E947708CD
:1007F0000895662329F00E94131C0E94F81C089596
:100800000E947F1CFACFCF93C82F882399F08CEFDA
:100810008C0F813A88F48C2F0E945D1F882329F069
:100820008C2F0E94A01F0E94010C8C2F0E94981FE9
:100830000E94010CCF91089580E28C0F883048F41B
:10084000C77081E001C0880FCA95EAF70E94750B56
:10085000EFCFEBE5EC0FE33040F4F0E0E959FD4F6A
:10086000808190E00E94FE1EE5CFE8E5EC0FEB31C1
:1008700050F4F0E0EE0FFF1FEF5CFD4F808191819F
:100880000E94231FD7CF83E38C0F833198F661E05A
:100890008C2F0E94F903CECF882381F19CEF980F13
:1008A000913A28F40E94A01F0E94010C089590E242
:1008B000980F983050F4877091E001C0990F8A9595
:1008C000EAF7892F0E947B0BEFCF9BE5980F9330BF
:1008D00028F490E080E00E94FE1E089598E5980FAD
:1008E0009B3128F490E080E00E94231F089593E359
:1008F000980F933118F460E00E94F90308951F9354
:10090000CF93DF93182FEB010E940304209739F453
:10091000812F0E944C04DF91CF911F9108958FE9A0
:100920009FE00197F1F700C000002197EFCF70E042
:1009300060E0893311F460E570E00E947F0408955F
:10094000882321F00E94750B0E94010C08958823D2
:1009500021F00E947B0B0E94010C0895B0E0A0E002
:10096000E4EBF4E00C94A5296C01D62FC72FFC0111
:100970001581068102950F700E946B0BE82E88236B
:10098000F9F0E12E1123E1F08C2F807F803461F0AB
:1009900080E28D0F883008F18C2F807E803221F428
:1009A000D230D8F00023C9F08091E20382FF15C055
:1009B00082E00E94260C0E946B0B91E0E82EE92653
:1009C000BC2EB2949FE0B922FBE0FB15B8F1EB2DF1
:1009D000F0E0E35CF54D0C949629E12CF1CF0C2F5F
:1009E0000F70C07F11F00295007F112399F0002352
:1009F00059F080E28D0F883010F0D11107C0802FA0
:100A00000E94750B0E94010C8D2F5AC0802F0E94EE
:100A1000850BF8CF8D2F0E944C04002379F080E2E3
:100A20008D0F883010F0D11104C0802F0E947B0BF5
:100A300003C0802F0E948B0B0E94010CEB2DE8500D
:100A4000FF0B349720F40E94D11E0E949503EE20E4
:100A500089F00E94670B80FD0DC0F60115820E948F
:100A6000610B0E947F07C6010E94BD060E94610BB8
:100A70000E948F07CDB7DEB7E9E00C94C1292C2F77
:100A80002F70F22EC07FC03219F0F29480EFF8225E
:100A9000DD2341F0D130D1F1112309F444C000230A
:100AA000F1F0B2CF8091E20382FD15C0112359F01D
:100AB000FF2029F08F2D0E94750B0E94010C80E011
:100AC0000E940304BBCF80E00E944C04FF2009F485
:100AD000B5CF8F2DABCF112369F0011104C08F2D3D
:100AE0000E94A004ABCF013009F0A8CF8F2D0E9447
:100AF000A90BA4CF0111A2CF8F2D0E94A7048F2D87
:100B00000E94B50B8F2D0E94990B98CF112321F0D5
:100B1000063008F093CFE3CF053008F08FCF8F2D4C
:100B20000E94A7048BCF0023D1F3D93349F43FEFC0
:100B300087EE93E0315080409040E1F700C0000024
:100B40008D2F0E944C047ACF8C2F869586958370CA
:100B500069F0813009F072CF8D2F9C2F93701111A5
:100B600002C080E090E00E94231F68CF8D2F9C2F51
:100B70009370111102C080E090E00E94FE1E5ECFD3
:100B8000612F8D2F0E94F90359CF8C2F8370A1F50F
:100B9000111154CF4D2F429546954770440F440F85
:100BA0002D2F2F7030E0042E02C0220F331F0A9425
:100BB000E2F790E080E0D4FF09C08FE090E002C04F
:100BC000880F991F4A95E2F780959095C695C6952E
:100BD000C370822B932BC23049F058F4C13019F006
:100BE0000E944F072BCF0E94460728CF0E9458072C
:100BF00025CF0E94430722CF8695112311F08C2F19
:100C00008170882309F41ACF4D2F4295469547707D
:100C1000440F440F2D2F2F7030E0042E02C0220FFE
:100C2000331F0A94E2F790E080E0D4FF09C08FE020
:100C300090E002C0880F991F4A95E2F78095909541
:100C4000C695C695C370822B932BC23049F058F4D9
:100C5000C13019F00E94BA07F1CE0E94B107EECE62
:100C60000E94C307EBCE0E946707E8CECF70112326
:100C700029F08C2F0E947F078D2F32CF8D2F0E945D
:100C8000A7048C2F0E948F07D9CED23F41F160F488
:100C9000D03FB9F0D13F81F0112309F446C00111D2
:100CA000B3CE8C2F8F711FC0D33F01F1D43FA1F77A
:100CB0008091E20382FD24C08C2F8F71112311F3E8
:100CC00012C0112341F0053008F0B8CE8C2F8F717F
:100CD0000E94A107B3CE063008F0B0CEF7CF8C2F1C
:100CE0008F711111CFCF0E947F07A8CE112329F059
:100CF0008C2F8F710E947307A1CE0E946E079ECE2B
:100D0000112349F0CF718C2F0E947F0763E08C2F55
:100D10000E94080C93CE81E00E94260C023008F459
:100D20008DCE82E00E94260C89CE002359F0D93363
:100D300009F006CFEFEFF7EE23E0E150F04020405E
:100D4000E1F7FCCE8C2F8F719DCF0F931F93CF9324
:100D5000DF93EC01688179818D810E9482088C018A
:100D60000E94CC070E944207B801CE010E94AE0447
:100D7000DF91CF911F910F910895CF93DF93EC01F5
:100D80008C81882399F0CE010E941303811111C038
:100D90000E946B0B882351F08D81882339F080915C
:100DA000E20382FF03C082E00E94260CDF91CF9114
:100DB0000895CE010E94A506CE010E94E402F6CF5E
:100DC00090E080E00E94FE1E90E080E00E94231FE1
:100DD0000E94920B0E94010C0E94141D0E94F81C9C
:100DE00008950E94A81F0E94E00608950E94820BA9
:100DF0000E94F106089592959F70963091F058F4F4
:100E0000925F9F70923058F4803F19F030F4883E22
:100E100030F481E008959A5FF4CF843FD1F380E00D
:100E20000895883EB0F3813FD1F7F3CFFC012481D0
:100E3000222339F0808191810E9477080E94FB066D
:100E4000089580E00895A6E0B0E0E9E2F7E00C94B0
:100E5000AC292696E2E00C94C829A7E0B0E0E3E3D1
:100E6000F7E00C94AC292796E2E00C94C829089589
:100E70000E94370708950E9438079093E3028093F9
:100E8000E202089508950E943B0708952091E2022E
:100E90003091E302822B932B0E943B07089520910F
:100EA000E2023091E302822393230E943B070895DC
:100EB0002091E2023091E302822793270E943B07B0
:100EC00008950E94370708950E94610708950E94BF
:100ED00064079093E1028093E002089590E080E03F
:100EE0000E946707089521E030E0A90102C0440F85
:100EF000551F8A95E2F7CA010E946707089521E00D
:100F000030E002C0220F331F8A95E2F78091E002A1
:100F10009091E102822B932B0E946707089521E0B4
:100F200030E002C0220F331F8A95E2F720953095FA
:100F30008091E0029091E102822393230E9467074F
:100F4000089521E030E002C0220F331F8A95E2F7B6
:100F50008091E0029091E102822793270E94670727
:100F600008952091E0023091E102822B932B0E94A0
:100F7000670708952091E0023091E10282239323D4
:100F80000E94670708952091E0023091E1028227D4
:100F900093270E94670708950895262F277091E0F0
:100FA00001C0990F2A95EAF723E0769567952A956F
:100FB000E1F7660F771F660F771FFA01E60FF71F3D
:100FC00050E040E0682F70E08191DF0111979B01B4
:100FD000042E02C0369527950A94E2F721702195D8
:100FE0002827292328272C934F5F5F4F4430510532
:100FF00059F70895A82FA77023E0969587952A950D
:10100000E1F7880F991F880F991FFB01E80FF91F5F
:1010100050E040E080E0219130E00A2E02C0369599
:1010200027950A94E2F721703327042E01C0220F7E
:101030000A94EAF7822B4F5F5F4F4430510559F70E
:101040000895262F9A3070F4863060F4682F70E08F
:1010500086E0989F600D711D112440EC52E0822FB4
:101060000E94CD070895292F9A3068F4863058F4ED
:1010700090E060EC72E036E0239F800D911D11241A
:101080000E94FA07089580E00895B0E0A0E0EBE444
:10109000F8E00C94A5297C010091E0021091E10296
:1010A0008091E2029091E302082B192BCFE0D0E06F
:1010B000CC24C394D12CBC2EC6010C2E02C0880FA8
:1010C000991F0A94E2F780239123892B49F42197F1
:1010D00090F7B12C8B2DCDB7DEB7E9E00C94C12988
:1010E000B7018C2F0E941C0F019789F3F3CFCF9388
:1010F000DF93EC010E944508BE010E941C0FDF91A6
:10110000CF9108951F93CF93DF93EB019091BF028E
:10111000992339F0CB010E947708DF91CF911F917D
:101120000895882369F0CB010E944508182F682F85
:10113000CE010E942108BE01812F0E941C0FEDCF1D
:10114000CB010E943308182FF6CF1F93CF93DF9364
:10115000C091E40217E08091E5028C1304C0DF9196
:10116000CF911F910895D0E01C9FF0011D9FF00DBD
:101170001124EA51FD4F20813181428153816481E4
:10118000758186810E942D072196C770E4CF20913A
:101190001E0330911F034091200350912103609161
:1011A000220370912303809124030E942D07089548
:1011B000CF93DF9380912403807F09F04DC080910D
:1011C0002303882309F448C0E091E4025091E5022A
:1011D000C0911F03D0911E036091200370912103E1
:1011E00047E05E17C9F18E2F90E0E49FF0011124D3
:1011F000EA51FD4F2481222391F1489FF001499F3C
:10120000F00D1124DF01AA51BD4F11962C911197B9
:101210002C1325C02C912D1322C015962C911597B7
:1012200021111DC012962D913C91261B370B283C95
:101230003105A8F4809124038F708061809324038A
:10124000E451FD4F80818F70806180838EE193E057
:101250000E94BD060E94A508DF91CF910895FC0170
:101260003196E770BECF482F2091E4029091E502BD
:1012700057E0291302C080E0089530E0529FF0014A
:10128000539FF00D1124EA51FD4F8181681306C070
:101290008081481303C085818111EECF2F5F3F4FBE
:1012A0002770E7CFA4E1B0E0E8E5F9E00C94A229CB
:1012B0008C0186E0F801DE011F9601900D928A955F
:1012C000E1F7F8018481E5809EE1A92E93E0B92E33
:1012D0009091220391111FC08823D1F0EE20A9F034
:1012E000C8010E941607F82E882379F087E0F801DC
:1012F000D50101900D928A95E1F7C5010E94F00396
:101300000E94D8080E94C7085FC0C8010E94BD069D
:10131000FF24F39459C0C080D18082809380F090E4
:1013200023032091200330912103A401421B530B7E
:10133000FF2009F4F9C0483C510508F0A7C08823F4
:1013400009F442C090911F0380912403282F207F2D
:1013500009F05CC09D1116C090911E03C91212C005
:10136000E1104EC08F708061809324030E94C708F3
:101370008EE193E00E94BD0680912403F8018683EC
:10138000F12C22C0E1103CC06D2D8C2D0E94330940
:101390006D2D8C2D0E943309E82E8111F1CFCF865F
:1013A000D88A8F8598890E947708292F22952F70D7
:1013B000243078F49F702230A8F09923B9F0F80116
:1013C0009681907F99F4FE2C8F2D6496ECE00C941E
:1013D000BE292A5F2F70223068F0C8010E94BD0626
:1013E000EF2CF1CF992311F0882369F3805E8830C8
:1013F00050F3F3CF803F38F3815F833070F7E3CF52
:1014000080912403816080932403BACF9D1113C07F
:1014100090911E03C9120FC0E1100DC08683C80150
:101420000E94BD0687E0F801AEE1B3E001900D92A5
:101430008A95E1F767CFC8010E941607882309F44F
:1014400064CFEE2009F461CF80912403803288F0CC
:1014500020911E0330911F03398728879B868A8637
:10146000909122039C871D868E87CE0108960E944C
:10147000BD0687E0F801AEE1B3E001900D928A95D8
:10148000E1F70E94D8080E94C70842CF9091240338
:10149000292F207FA1F4682D9A8A898AA6017A894A
:1014A0009E2D0E9423078EE193E00E94BD0687E0F7
:1014B000F50111928A95E9F70E94C70861CF882348
:1014C00009F482CF80911F038D1110C080911E03FB
:1014D000C8120CC0E1100AC09683C8010E94BD0664
:1014E00087E0F50111928A95E9F76ECFC8010E9455
:1014F0001607882309F409CFEE2009F406CF80915E
:101500002403803208F4B5CF20911E0330911F03CD
:101510003A8329839C828B82909122039D831E8231
:101520008F83CE010196A3CF483C5105B8F588239F
:1015300009F4EECEFE2CEE2009F4E7CE80911F03D5
:101540008D111EC080911E03C8121AC08091240301
:1015500080FD0DC0982F907F51F08683903F09F455
:101560005ECF982F907F905F8F70892B57CF87E049
:10157000F801AEE1B3E001900D928A95E1F724CF36
:10158000C8010E941607811174CF809124038160E5
:1015900080932403C8010E94BD0616CF682D9A8A45
:1015A000898AA6017A899E2D0E94230787E0F5018A
:1015B00011928A95E9F7A6CEAEE0B0E0E2EEFAE04D
:1015C0000C94AB29288739874A875B876C877D878E
:1015D0008E87CE0108960E9452098823B1F06C854F
:1015E000662341F0288539854A855B857D858E8512
:1015F0000E942D0717E08091E4029091E502891383
:101600003DC02E96E3E00C94C72987E0FE01389692
:10161000DE01119601900D928A95E1F78C85882361
:1016200049F32091E50230E0C901019687709927BE
:101630004091E4024817190699F097E0929FD00173
:10164000939FB00D1124AA51BD4FFE013196019018
:101650000D929A95E1F78093E5020E94A508CACF02
:101660000E94F6061092E5021092E40287E0EEE195
:10167000F3E0DF011D928A95E9F7BCCF819FC0019D
:1016800011248A519D4F0E945209882309F4B9CF31
:10169000E091E4021E9FF0011124EA51FD4F2081E8
:1016A0003181428153816481758186810E942D0739
:1016B0008091E40290E00196877099278093E4027C
:1016C0009ACF80912D038695869586950895809171
:1016D0002D038770089590912D03977081E009F490
:1016E00080E0089580913903089590913903892B02
:1016F00080933903089580959091390398239093AE
:101700003903089510923903089590913803892B75
:10171000809338030895809590913803982390938F
:101720003803089510923803089508950E94950B88
:10173000089590912E03292F282331F08095892335
:1017400080932E030E94960B089508950E94A50B86
:10175000089590912F03292F2823281729F0982BDB
:1017600090932F030E94A60B089590912F03292F89
:10177000282331F08095892380932F030E94A60BA4
:10178000089580912F03882329F010922F0380E081
:101790000E94A60B08950F931F93CF93DF930091A0
:1017A000EA011091EB01C091390380913803C82BF5
:1017B00080912F03882331F0C82B0E94481F81118C
:1017C0000E94C10BF801C083C091EA01D091EB01E6
:1017D00048E050E065E273E0CE010E94D329892BF6
:1017E00059F088E0FE01A5E2B3E001900D928A95E0
:1017F000E1F7CE010E94E51EDF91CF911F910F917D
:1018000008950E94CB0B089508950E94040C08953A
:101810009091E20392FF11C098E0899F90011124FA
:10182000622B60932D030E947F0780912D03869584
:10183000869586950E94050C08950E947F0708955D
:1018400010922D0380E00E94050C089590912D03C5
:101850008095892380932D03282F277069F4891799
:1018600059F09091E20392FF07C086958695869580
:101870000E948F070E94200C08959091E20392FB32
:10188000222720F9281769F080FB92F99093E20350
:101890008091E1039091E2030E94850C82E00E9416
:1018A000260C08958091E20382FB882780F991E05D
:1018B00089270E943D0C089581E00E943D0C089507
:1018C00080E00E943D0C08956FEF7FEF90E080E094
:1018D0000E94352A089590E080E00E94012A21E0CC
:1018E000863E9E4F09F020E0822F089582E090E02E
:1018F0000E94F929089583E090E00E94F929089553
:1019000084E090E00E94012A0895BC0184E090E008
:101910000E94352A0895AB01BC018FE090E00E943F
:10192000292A0895AB01BC0183E190E00E94292A95
:10193000089560E070E0CB010E94920C089560E091
:1019400070E0CB010E948B0C0E94990C0895A8E0D6
:10195000B0E0EDEAFCE00C94AC2966EE7EEF90E09E
:1019600080E00E94352A60E082E090E00E94172A21
:1019700081E090E09093E3028093E20261E083E0F3
:1019800090E00E94172A60E074E184E090E00E94F9
:10199000352A60E086E090E00E94172A6FEF87E02A
:1019A00090E00E94172A40E050E0BA0188E090E001
:1019B0000E94292A60E084E290E00E94172A60E0F9
:1019C00087E190E00E94172A60E08CE090E00E949E
:1019D000172A60E08DE090E00E94172A19821A828F
:1019E0001B821C821D821E821F82188648E050E0E6
:1019F00068E170E0CE0101960E94072A40E050E0C5
:101A0000BA0180E290E00E94292A0E949F0C289649
:101A1000E2E00C94C8290E94A70C0895682F8EE07C
:101A200090E00E94172A0895A6E0B0E0EAE1FDE008
:101A30000C94AA290E9485208C0180913A039091F0
:101A40003B038017910781F019821A820E9485203A
:101A5000682F49815A81792F80E090E00E94C0036D
:101A600010933B0300933A032696E4E00C94C629B6
:101A70000E94381060934A0370934B0380934C0389
:101A800090934D03609346037093470380934803FC
:101A9000909349030895089508950E944B0D089569
:101AA00008950E94500D089581E008958CE690E11C
:101AB0000E941B150E944C0D0E944D0D08950E941E
:101AC0006A120895089508950E94620D0E94630DA0
:101AD00008950E948B100E9494030E942818089574
:101AE0000E947C200E9412100E9472120E94BD115E
:101AF0000E94690D0E94701A0E9484120E94510D6A
:101B00000895A6E0B0E0E7E8FDE00C94A3290E9468
:101B1000540D81110EC00E94140D0E946A120E9481
:101B20006C170E94361D0E94A7032696EBE00C94CA
:101B3000BF290E94E0118CE3A82E83E0B82E750126
:101B400010E0F70101917F01812F0E94B1101F5F0A
:101B50001A3009F444C00817A1F380914E0381FDA7
:101B60000E94B7100E945F0D982E10E0812F0E94F6
:101B7000B110F82EF50181915F01F81651F100E0E6
:101B8000EE24E394DF2CD8268D2D8E21D9F0CC24A1
:101B9000C3948F2D8E2109F4C12C992071F00983F3
:101BA0001A830E948520682F8B839C8349815A81E8
:101BB000792F81E09C2D0E94C0034C2D602F812F36
:101BC0000E9435160F5FEE0C0630F1F6F5013197E5
:101BD000F0821F5F1A3051F60E94380D9ECF081315
:101BE000BCCF99CF1F93CF93DF930E94210FEC01BD
:101BF000C11580E5D807F0F5C11580E4D80708F0D5
:101C00009CC0C03ED10520F5CD3CD10508F082C076
:101C1000C83AD10578F4C53AD10508F073C0C1308F
:101C2000D10519F1209709F1C430D105F0F4D0E0C5
:101C3000C0E01BC0C33CD105D0F7C85AD0E0CC0FE0
:101C4000DD1FC659DD4F0990D881C02DD4640DC069
:101C5000C11580E2D80708F0D1C0C11581E0D807CE
:101C600008F05AC0C83ED10510F7CE01DF91CF91E0
:101C70001F910895C03682E5D80718F5C03482E573
:101C8000D80708F06BC0C03282E5D80708F05FC003
:101C9000C11582E5D80708F497C02C2F2695269504
:101CA00080E2289F900111248C2F8370C1E0D0E046
:101CB00002C0CC0FDD1F8A95E2F7C22BD32BDD6863
:101CC000D4CFC03A82E5D80760F4C03882E5D8079F
:101CD00008F459C0CF71D0E0DC2FCC27C46FD06A94
:101CE000C4CFC03C82E5D80708F462C0C03E82E59C
:101CF000D80708F09CCFDC2FCC27CC27DF71C06F32
:101D0000D06AB3CFC55AD0E0C056DD4FC881D0E00D
:101D1000D064ABCFD065A9CF8D2F0E94C30F182FF1
:101D2000CE0199270E94210FC12FD0E0DC2FCC27B4
:101D3000CC27DF71C82BD92B98CFCE0199270E94D1
:101D4000210FCC27DF70C82BD92BD06A8ECFCF7153
:101D5000D0E0DC2FCC27C16FD06A87CF2C2F2695FF
:101D60002695277080E2289F900111248C2F837084
:101D7000C1E0D0E002C0CC0FDD1F8A95E2F7C22B94
:101D8000D32BDC6872CF2C2F26952695277080E206
:101D9000289F900111248C2F8370C1E0D0E002C0F5
:101DA000CC0FDD1F8A95E2F7C22BD32BDA685DCF0B
:101DB0008C2F8F710E94C30FC82FD0E0DC2FCC274F
:101DC000CC27DF71D06251CF8C2F8F710E94C30F4F
:101DD00055E0D695C7955A95E1F7CF70D0E0DC2F46
:101DE000CC27282F30E084FF05C044E0220F331FAA
:101DF0004A95E1F7C22BD32BD06937CF8D2F8F7146
:101E00000E94C30F182FCE0199270E94210FC12FC6
:101E1000D0E0DC2FCC27CC27DF71C82BD92BD2CF39
:101E2000462F7A3030F4663020F4672F0E948B0200
:101E3000089590E080E008950E94100F0E94F20D36
:101E4000089582389105B9F1B0F48133910509F410
:101E50007DC048F48932910509F46DC08A3291053C
:101E600009F47BC008958533910509F45FC0893377
:101E7000910509F10895833E9105D9F138F4803E2A
:101E8000910529F1823E910579F10895863E9105EB
:101E9000D9F1873E910509F43EC0843E910541F594
:101EA0002091E20321FF24C08091E10384FD19C049
:101EB00087EE90E008952091E103237009F05AC065
:101EC0002091E20323FF14C089E290E0089520915D
:101ED000E10320FD38C03091E20330FF09C024FF48
:101EE00043C090E080E008952091E10322FDF7CF08
:101EF00008952091E10322FD3AC03091E20330FDC4
:101F000039C024FFF5CFEDCF2091E10323FFF0CFBF
:101F100024FDE7CFCDCF2091E10323FD2EC03091EA
:101F2000E20331FFEECF84EE90E008952091E103CB
:101F300025FFDECFC9CF2091E10325FD21C02091EF
:101F4000E20323FFD5CF89E390E0D2CF2091E103D4
:101F500026FFCECF8AE290E008952091E10326FF8C
:101F6000C7CF81E390E0089583EE90E0089582EE7C
:101F700090E0089580EE90E0089586EE90E0089558
:101F800085E390E008959091E10392FF10C041E055
:101F9000282F2471243009F040E031E0282F2871E7
:101FA000283009F030E0431711F02CE0822793FF2E
:101FB00010C041E0282F2471243109F040E031E0C5
:101FC000282F2871283109F030E0431711F02CE058
:101FD00082273091E20330FF10C051E0282F217199
:101FE000213009F050E041E0282F2871283009F015
:101FF00040E0541711F029E0822731FF10C041E082
:10200000282F2171213109F040E031E0282F28717B
:10201000283109F030E0431711F029E0822794FDC0
:10202000877E08951092DD031092DE031092DF0385
:102030001092E0030895CF92DF92EF92FF926B012E
:102040007C010E946A1281110EC00E949120C61A62
:10205000D70AE80AF90AC092DD03D092DE03E092C3
:10206000DF03F092E003FF90EF90DF90CF900895B0
:102070000F931F930E946A12882329F00E949120D7
:102080001F910F9108950E9491200091DD031091FE
:10209000DE032091DF033091E003600F711F821F88
:1020A000931FEECFCF92DF92EF92FF926B017C01F4
:1020B0000E946A12882349F0C701B6010E94AC2031
:1020C000FF90EF90DF90CF9008950E9438106C1928
:1020D0007D098E099F09F4CF80E008950E94640C69
:1020E00008950E94E0112FEF86E791E02150804093
:1020F0009040E1F700C000000E94E01180E00E94E3
:10210000B11080FF04C00E946E100E94EC20089560
:102110000E94711008950E946B0C811102C00E94F0
:102120000B0D0E94760C80934E030E94800C9093BE
:10213000E2038093E1030E9488100E947B0C90E0F0
:102140000E9443078091E0029091E1020E9464079F
:10215000089508950E94A910089508950E94AD1051
:102160000895E82FF0E0E251FC4F80810895089532
:1021700080EA8A95F1F7089500C008950E94B8108A
:10218000089508950E94C1100895A5E0B0E0EBEC19
:10219000F0E10C94A8290E946A12F82E6091F803CD
:1021A000882309F440C085E0E82E8E010F5F1F4FA1
:1021B000F8018E2D11928A95E9F7862F90E0B801EB
:1021C00082519C4F0E9492128823B9F08091E303C0
:1021D00090E045E050E0B80182519C4F0E94D32925
:1021E00021E020934F03892B91F4F12C0E94AE1033
:1021F0008F2D2596E6E00C94C42980914F03882307
:10220000A1F3F8011192EA94E9F710924F03A0911B
:10221000E303B0E0A251BC4F85E0F80101900D92BC
:102220008A95E1F7E3CF70E062517C4F8091E30340
:1022300090E082519C4F0E9419130E94C210D8CF87
:10224000F894E82FE295EF70F0E031A1282F2F707D
:1022500081E090E001C0880F2A95EAF7982F9095C9
:10226000932391A392A1892B82A3789408950F932D
:102270001F93CF93DF93C3EAD2E089918F3F11F090
:102280000E94201182E0C93AD807B9F7C9EAD2E022
:102290000EEA12E089918F3F11F00E9420110C1775
:1022A0001D07C1F7DF91CF911F910F910895B0E005
:1022B000A0E0EDE5F1E10C94A6297C01162F042F96
:1022C000C62FD0E0CD55DD4F28812F3F09F44CC0FB
:1022D000F894E22FE295EF70F0E031A12F7081E0E9
:1022E00090E001C0880F2A95EAF7932F982B91A3CD
:1022F00092A18095892382A378940E94BC1089EAD8
:10230000C82E82E0D82EF701A7014B5F5F4FF12C5A
:10231000E02EE094D6019D916D0181919F012150A5
:1023200031099F3F31F1692F62956F7070E0DB01D9
:1023300090966C9170E09F7002C0759567959A9524
:10234000E2F760FD16C0802BD9018C93FF24F39433
:10235000E417F507F9F688818F3F11F00E942011EC
:102360006F2D812F0E94BE10CDB7DEB7E8E00C9430
:10237000C2298E21D9018C93EBCF8091EC01809101
:10238000EC0195E0811190E09093F80385E0891BC2
:102390008093E3030E9437118AE0EEEEF3E0DF0161
:1023A000982F1D929A95E9F7E4EEF3E0DF011D9274
:1023B0008A95E9F785E00E9422120E94AA100895EA
:1023C000AAE0B0E0E6EEF1E10C94A8298E010F5FDF
:1023D0001F4F8AE0F80111928A95E9F7F12CEE245B
:1023E000E3944E2D6F2DC8010E945711F394EE0C0B
:1023F000F6E0FF12F6CF4AE050E0B80184EE93E039
:102400000E94D32921E0009709F420E0892B41F0B4
:102410008AE0F801A4EEB3E001900D928A95E1F70D
:102420006091F80370E062517C4F45E084EE93E0E8
:102430000E942312182F0E94C510812B2A96E6E0D5
:102440000C94C4290895B0E0A0E0E9E2F2E10C9414
:10245000A6296C017B01042FC22F222379F081E091
:10246000809352030E9485209093510380935003E0
:1024700080E0CDB7DEB7E8E00C94C229D0915203DA
:10248000DD23B1F380915003909151030E949D2070
:10249000059770F310E0A801B601C7010E94D32987
:1024A000892B31F0A801B601C7010E94E029CD2F88
:1024B000109252038C2FDDCFCF930E946129C82F39
:1024C000811102C00E945C298C2FCF9108958091C8
:1024D000560308958091550308950E946A1291E071
:1024E000892708950E945C12809355030E946D1203
:1024F000809356030E9467128093EC010E946A1237
:1025000081110E94C81208950E946A12811102C0AE
:102510000E94CB12089581E0909157039A3008F001
:1025200080E008950F931F93CF93DF93EC018B010D
:10253000809157038A30B8F4B801CE010E94161377
:10254000C82F811122C0809157038F3FB9F40E9498
:10255000852090935403809353038C2FDF91CF9168
:102560001F910F91089580915303909154030E94FD
:102570009D20843F914000F7C0E0EFCF8F5F8093B4
:1025800057038A3020F7C1E0E8CF10925703E5CF18
:102590000E94752108950E9478210895B0E0A0E07E
:1025A000E4EDF2E10C94A7297901C82F880FDD0B27
:1025B00041155105A9F0FE0193E0EE0FFF1F9A951A
:1025C000E1F7E351FE4F81819281885A9C4F20812F
:1025D00030E04217530708F49A01A9010E94E0294C
:1025E000CE010E946122D82E8823D1F00115110559
:1025F000B9F083E0CC0FDD1F8A95E1F7FE01E351CE
:10260000FE4F438150E00417150708F4A801C35199
:10261000DE4F6C817D81685A7C4FC7010E94E029A2
:102620008D2DCDB7DEB7E7E00C94C3290E948C1442
:1026300008950E94B5140895B0E0A0E0E2E2F3E14D
:102640000C94A429C82F7B01D42F69015801FB01E8
:1026500060817181828193810E94AC206436710512
:102660008105910510F4DD23C9F010E000E030E0B1
:1026700020E0A501B6018C2F0E94CE12C82F88231E
:1026800039F00E949120F7016083718382839383E4
:102690008C2FCDB7DEB7EAE00C94C029C1E0F8CFAB
:1026A000A9E0B0E0E6E5F3E10C94AA2988E0E9EFBF
:1026B000F3E0DE01119601900D928A95E1F70E94F8
:1026C000A91889876091AE027091AF02615F7F4F58
:1026D00049E050E0CE0101960E94D32941E0892BC8
:1026E00009F440E009E010E09E012F5F3F4F65E8EC
:1026F00073E084E00E941C132996E4E00C94C62940
:10270000A4E0B0E0E6E8F3E10C94AA29609181032B
:102710007091820380918303909184030E94AC2086
:1027200011E0643671058105910518F10E94381099
:102730006E5F7F4F8F4F9F4F69837A838B839C831C
:1027400010E000E030E020E044E050E0BE016F5FC8
:102750007F4F83E00E94CE12182F882351F00E94F1
:1027600091206093810370938203809383039093FD
:102770008403812F2496E4E00C94C629B0E0A0E005
:10278000E4ECF3E10C94A4297C015B016A010E9452
:102790008B1201E010E0882311F00AE010E0C1E0A4
:1027A000D0E0B501C701F6010995811104C0219659
:1027B0000C171D072CF4CDB7DEB7EAE00C94C02946
:1027C000CC9F9001CD9F300D300D112490E080E022
:1027D00045E34A95F1F70000019682179307C1F788
:1027E000E0CFA6E0B0E0E7EFF3E10C94A4297B0191
:1027F000C090AE02D090AF0201E010E09E012A5FCF
:102800003F4F50E040E070E060E080E00E94CE1278
:10281000182F882309F448C056018FEFA81AB80A68
:102820006091790370917A0380917B0390917C038E
:102830000E94AC20643671058105910568F105E0C0
:1028400010E09E012F5F3F4F50E040E070E060E0FD
:1028500081E00E94CE12D82E65E070E0C5010E9492
:10286000711A11E09E81981310E01D2141F10E9420
:1028700091206093790370937A0380937B03909304
:102880007C0385E0FE013196A4E7B3E001900D9250
:102890008A95E1F711E013C065E070E0C5010E9480
:1028A000711A9E818913CBCF85E0F6013196DE0146
:1028B000119601900D928A95E1F71111E2CF85E012
:1028C000E4E7F3E0D70101900D928A95E1F7812FBB
:1028D0002696EAE00C94C0290F931F93CF93DF93C1
:1028E000EC016091AE027091AF026A5F7F4F45E0EC
:1028F00050E00E94D32941E0892B09F440E005E033
:1029000010E09E016DE773E082E00E941C13DF91EE
:10291000CF911F910F9108950F931F93CF93DF9342
:10292000EC018B0141EF53E10E94BE13811106C0FF
:1029300080E0DF91CF911F910F9108954CE654E113
:10294000B801CE010E94BE13882391F340E853E101
:10295000B801CE010E94BE13882351F340E553E134
:10296000B801CE010E94BE13E4CF0F931F93CF9303
:10297000DF938C01C091AE02D091AF02CE010196DF
:1029800025E0FB01DC0101900D922A95E1F765E05D
:1029900070E00E94711A8883FE01369685E0D801A6
:1029A00001900D928A95E1F76B857C858D859E85DA
:1029B00000917003109171032091720330917303A1
:1029C000601771078207930751F06093700370934B
:1029D000710380937203909373030E941B1088E02D
:1029E000FE013F96A9EFB3E001900D928A95E1F7C1
:1029F0008F890E948F18DF91CF911F910F910895B9
:102A00000E9432240E94700D0E943F2408950E946B
:102A100044240E94810D0E945E2408950E941E207D
:102A20000E9418240E94560D0E9400150E9407154E
:102A30000E94640DFBCF9093B9028093B802089571
:102A4000EF92FF920F931F93CF93DF93EB01E82F49
:102A5000D1110EC0442321F0F0E0EC5EFD4FE49173
:102A60006E2F7E2F8E2FCDB7DEB7E6E00C94C429F3
:102A70000D2F10E0282F30E0442329F02C5E3D4F2D
:102A8000F901249130E0F6E0CF9FC0011124EFEF6F
:102A9000F0E0BF010E946E29AB018C2F90E0880FFF
:102AA000991FA5E5A49FB001A59F700D1124861B59
:102AB000970B982F990F980FBF01601B710B629FA6
:102AC000D001639FB00D729FB00D11248B2F9D9F7D
:102AD000B0011124672F7727EF01C61BD70BBE016A
:102AE000629FE001639FD00D729FD00D11247F0182
:102AF000E91AF108E09EB001E19E700DF09E700DA4
:102B00001124672F7727E61BF70BE29F8001E39FD5
:102B1000100DF29F100D1124E12F722F423051053C
:102B200099F048F44115510569F04130510581F0A3
:102B3000EB2F8D2F07C04430510569F080F04630EF
:102B40005105B1F76E2F8FCFE22F7B2F812FFACF58
:102B5000E22F7D2FF7CFEB2F822F712FF3CF7B2F1B
:102B6000822FED2FEFCF41E00E9420150895909124
:102B70008903892B809389030895CF93C82F0E94DE
:102B80006712882329F081E0CD3128F080E003C06E
:102B900081E0CA33D8F7CF91089548E050E068E16A
:102BA00070E089EF93E00E94072A1092890308954C
:102BB0000E94B3150895E9EFF3E085E080838091EA
:102BC0002E0290912F02A091300281839283A383E1
:102BD0008FE784838FEF85830E94CD15089580E071
:102BE00008950F931F93CF93DF93C82FD62F8A0199
:102BF0000E94EF1596E0C99FB001112460507F4FED
:102C00006D0F711DFB0190819F3F29F0F801E80FC6
:102C1000F11D90838F5FDF91CF911F910F910895E8
:102C2000E091B602F091B70209950895E091B202E1
:102C3000F091B30209950895FF920F931F93CF93DC
:102C4000DF93182F062FF42ED0E0C0E02F2D402F59
:102C5000612FCE010E9416162196CA33D105B1F715
:102C6000CDB7DEB7E5E00C94C529CF92DF92FF9295
:102C70000F931F93CF93DF93CDB7DEB728970FB68F
:102C8000F894DEBF0FBECDBFF12C442331F0AE016E
:102C90004F5F5F4F0E94F115F82E0F2D10E08091CD
:102CA0008A03800F912F911D09976CF188E090E0C5
:102CB0006C01C01AD10AB80165577C4FA6018BE898
:102CC00093E00E94E029B8016D567C4FA60183E98C
:102CD00093E00E94E029A601440F551FB801660F3A
:102CE000771F6D557C4F83EA93E00E94E029B8017D
:102CF00065567C4FA6018BE993E00E94E02988E0AD
:102D00008F1980938A0310918A03DE01119640E0A7
:102D1000842F810FF41210C080938A0328960FB677
:102D2000F894DEBF0FBECDBFDF91CF911F910F9101
:102D3000FF90DF90CF9008955D91252F30E090E0D7
:102D4000BC0166577C4FF901EE0FFF1FE45CFE4F9C
:102D50000081FB010183220F331FF901E050FF4F77
:102D600025ADFB012187518B880F991FFC01E65788
:102D7000FC4F128E118E4F5FCBCF81E008950E94E1
:102D8000BD160895CF93DF93CCE08C9FC02D112406
:102D9000DCE0DC0FDB3308F0DAE30E946712882303
:102DA00019F0DE3108F0DDE10E946712811103C0E5
:102DB000CD3108F4CDE1CE01DF91CF910895B0E09F
:102DC000A0E0E5EEF6E10C94A6297C01FC018081EF
:102DD0000E94C216C82F192F6091FA037091FB034D
:102DE0008091FC030E94D815062FD72EC82ED0E064
:102DF000C11740F0812F0E94BD15CDB7DEB7E8E0C6
:102E00000C94C229FE01E055FE4F8081F7019181AB
:102E1000892331F02C2D402F6D2DCE010E941616E6
:102E20002196E6CFCF93C82F809119028C1335C01D
:102E30009091F903937020911A0230E081E092178B
:102E4000130609F480E08170809318028091FE03DC
:102E500090911702981739F08093170240E060E0D4
:102E600080E00E941C16CC23D1F0C13011F180E02B
:102E7000909116029F5F9093160281110CC082E020
:102E80008093150280911802811105C0C11103C001
:102E900083E080931502CF91089581E0D4CF809193
:102EA0001802882329F340E060E080E00E941C16AD
:102EB000DECF86E192E00E94DF16DACF81E008954E
:102EC0000E945E170895FC01808181500E94C21605
:102ED000692F0E94601708954F925F926F927F92C0
:102EE0008F929F92AF92BF92CF92DF92EF92FF921A
:102EF000CF936091B3037091B4038091B503909127
:102F0000B6030E9452106B017C010E9438104B01E5
:102F10005C018092B3039092B403A092B503B09287
:102F2000B603A0918A03EAE8F3E08A2F90E04FEF1E
:102F30005FEF60E070E04C195D096E097F09A9132D
:102F40002AC080938A038091B703C0E0811108C032
:102F50008091F903C82FC37019F0C82FC695C69584
:102F600080911502813009F440C0882339F1823004
:102F700009F44BC0833009F453C0CF91FF90EF9018
:102F8000DF90CF90BF90AF909F908F907F906F9089
:102F90005F904F900895218D328D2901712C612C05
:102FA000441555056605770520F481509F5F3296DC
:102FB000C6CF2C0D3D1D328F218FF8CF10921602F7
:102FC0008092010490920204A0920304B09204043F
:102FD00089E2EAE8F3E0A5E0B4E001900D928A9579
:102FE000E1F781E080931502C8CF8C2F0E94121761
:102FF000CC2319F280911502823011F40E94BF1681
:1030000086E192E00E946317B8CFC09319028091C5
:10301000F903837080931A020E94101683E0E2CFB6
:103020008091890381110E94CD15609101047091F6
:10303000020480910304909104040E9452106031B4
:1030400071058105910508F498CF1092150295CF6E
:10305000E091B002F091B1020995109205048FEF52
:103060009FEF90931F0480931E04909321048093FC
:10307000200490932304809322049093250480934A
:10308000240490932704809326049093290480932A
:10309000280490932B0480932A0490932D0480930A
:1030A0002C0410928A039093A4038093A30390931B
:1030B000A6038093A5039093A8038093A7039093FE
:1030C000AA038093A9039093AC038093AB039093DE
:1030D000AE038093AD039093B0038093AF039093BE
:1030E000B2038093B1030E946B0C811104C00E9453
:1030F0000B0D0E94DB1581E08093890348E050E0CE
:1031000068E170E089EF93E00E94E9291092890359
:103110008091F9038C7F11F40E94DB150895CF9301
:10312000C82F882391F08091B70381110EC00E94AF
:103130001217109219028091F903837080931A027A
:103140000E94101683E080931502C093B703CF91BD
:1031500008958091B7030895E9EFF3E0908121E0AD
:1031600092279083109215020E94B715089581E06E
:103170000E94AC180895862F9091F903937039F04E
:1031800094609093F903109215020E94B715089568
:1031900061E00E94BB180895682F81E00E94BB186F
:1031A000089581E00E94CC180895682F9091F9034A
:1031B000969596958FEF890F09F481E00E94BB18D0
:1031C000089581E00E94D51808959091F9039370B5
:1031D00061F08093FA036093FB03433308F042E30A
:1031E0004093FC03822F0E94B7150895A9EFB3E026
:1031F0001196EC911197F0E0282F13964C911397AC
:1032000012966C91CF0108960E94E518089581E00E
:103210000E94F6180895E9EFF3E09181282F438189
:103220006281E92FE850FF0BCF010E94E518089555
:1032300081E00E940B190895E9EFF3E0628120E13B
:10324000620F08F46FEF9181282F4381892F90E05E
:103250000E94E518089581E00E941C190895E9EF85
:10326000F3E0628120E1621B08F460E09181282F85
:103270004381892F90E00E94E518089581E00E9423
:103280002F190895E9EFF3E0438120E1420F08F49C
:103290004FEF9181282F6281892F90E00E94E518DD
:1032A000089581E00E9442190895E9EFF3E0438117
:1032B00020E1421B08F440E09181282F6281892F90
:1032C00090E00E94E518089581E00E945519089544
:1032D000E9EFF3E0248130E1230F08F42FEF24839A
:1032E0000E94B715089581E00E9468190895E9EFDA
:1032F000F3E0248130E1231B08F420E024830E94C2
:10330000B715089581E00E94771908951092B803C7
:1033100008958091B803882341F06AE370E08EE25B
:1033200094E00E94441A1092B8030895FF920F93FC
:103330001F93CF93DF93EC01F62E042F122F0E94E0
:103340006712811123C0CD31D1051CF16D97FE01AB
:10335000EE0FFF1FDF01AC0FBD1FA25DBB4F11962B
:103360008C9111978F1107C08C91801304C0129615
:103370008C91811771F081E08093B803EC0FFD1FF1
:10338000E25DFB4FF1820083128303C0CD31D10592
:10339000F4F2CDB7DEB7E5E00C94C529FF920F93A8
:1033A0001F93CF93DF93182F062FF42ED0E0C0E0A9
:1033B0002F2D402F612FCE010E9496192196CA33DE
:1033C000D105B1F7CDB7DEB7E5E00C94C529FA0118
:1033D000811101C0FB01099508951F93CF93DF93DD
:1033E000EC01FB011581111110C00E94720B827259
:1033F000FE01E052F847E531F10508F043C0E75B14
:10340000F54D0C9496290E94B718812FDF91CF912A
:103410001F91089541EE58E161ED78E10E94E719AE
:10342000F4CF41ED58E161EE78E1F8CF48E159E1A0
:1034300067E079E1F3CF47E059E168E179E1EECF68
:103440004EE359E16BE279E1E9CF4BE259E16EE3FA
:1034500079E1E4CF44E659E161E579E1DFCF41E587
:1034600059E164E679E1DACF42E859E163E779E1CD
:10347000D5CF43E759E162E879E1D0CF81E00E94FE
:10348000C818C3CF11E0C1CF539A4BB1477F5BB18E
:103490005860EFB7F8949B01220F331F260F371F98
:1034A000280F391F2817390741F4EFBF8FE594E043
:1034B0000197F1F700C000000895DC016D91CD0186
:1034C00078E05BB9000000C067FF4BB9660F0000F1
:1034D00000C000C000C04BB900C07A9591F7E2CFA0
:1034E0000895FC01680F791F8FEF91E3E617F70746
:1034F00009F408952191822728E030E087FF06C073
:10350000880F892721503109C9F7F0CF880FFACFEA
:10351000CF93DF93EB0186319C4711F50E94720B2C
:103520009D81992399F08A7A91E009F490E0909333
:10353000B903811109C089E20E94981F0E94010C01
:1035400080E0DF91CF91089585E3F6CF8091B903B4
:10355000811104C089E20E94A01FF0CF85E3FBCF58
:1035600081E0EFCFCF93DF93EC01FB0185818823CE
:1035700009F4D2C09E0130572332310508F0B2C0A1
:103580000E94800C9093E2038093E103FE01E150DE
:10359000F047E232F10520F4E25AF54D0C949629F9
:1035A0008091E10381608093E10393C08091E20305
:1035B00088608093E2038DC08091E1038260F3CF45
:1035C0008091E1038460EFCF8091E1038860EBCFCD
:1035D0008091E2038160EDCF8091E2038260E9CFC8
:1035E0008091E1038061DFCF8091E1038062DBCFD6
:1035F0008091E1038064D7CF0E94F6068091E103B9
:103600008068D1CF8091E1038C60CDCF8091E203BF
:103610008360CFCF8091E1038E7FC5CF8091E2039D
:10362000877FC7CF8091E1038D7FBDCF8091E1037C
:103630008B7FB9CF8091E103877FB5CF8091E20383
:103640008E7FB7CF8091E2038D7FB3CF8091E1036E
:103650008F7EA9CF8091E1038F7DA5CF8091E1037B
:103660008F7BA1CF0E94F6068091E1038F779BCFDD
:103670008091E103837F97CF8091E2038C7F99CF84
:103680008091E10382FB992790F921E0922790FB3A
:1036900082F990FB83F987CF8091E203982F909570
:1036A00091708E7F892B90FB81F983CF9091E103FC
:1036B000892F8F7B96FF806476CF0E94F6069091CB
:1036C000E103892F97FB87F980586DCF81E00E9435
:1036D0000E0D8091E1039091E2030E94850C0E94FF
:1036E000F60680E0DF91CF91089580E0F0CF9091D1
:1036F000E103892F8F7E94FF806155CF9091E10384
:10370000892F8E7F90FF81604ECF9091E203892FA9
:10371000877F93FF88604DCF81E0E4CF282F35EB82
:103720002303C001112497FF04C080589109892FF9
:10373000089580589F4FFBCF8091C00380FF0DC03C
:103740006091200270E0660F771F6038710570F598
:103750006115710569F1862F089581FF07C0609199
:10376000200284E0689FB0011124EFCF6091200215
:1037700082FD0AC08091BF038823A9F020911F0217
:1037800060912002821710F088E0ECCF869FC00184
:10379000112433E0880F991F3A95E1F7622F70E00A
:1037A0000E948229D2CF68E070E0D5CF8FE70895DC
:1037B00081E008958091C00380FF0CC060911C02DD
:1037C00070E075956795759567956115710549F177
:1037D000862F089581FF06C060911C0270E07595E8
:1037E0006795F3CF60911C0282FD0BC09091BE03E0
:1037F0009923A1F060911B0280911C02961738F06A
:10380000682F70E06038710500F38FE70895899F95
:10381000C001112470E00E948229F4CF61E070E0C1
:10382000D7CF81E008959091C3032091C403922BD8
:103830002091C603922B2091C503922B31F098E082
:103840009093BF0391E09093BE038D3C31F40E94AE
:103850009C1B81958093C40308958E3C19F40E94AB
:103860009C1BF8CF8F3C31F40E949C1B8195809368
:10387000C3030895803D19F40E949C1BF8CF893D35
:1038800029F40E94DA1B8093C50308958A3D21F430
:103890000E94DA1B8195F7CF8B3D31F40E94DA1B31
:1038A00081958093C60308958C3D19F40E94DA1B1C
:1038B000F8CF9FE2980F983070F4815D990B21E06A
:1038C00030E001C0220F8A95EAF78091C203822B73
:1038D0008093C20308958D3D31F48091C0038160CF
:1038E0008093C00308958E3D21F48091C0038260CF
:1038F000F7CF8F3DB9F78091C0038460F1CF40913D
:10390000C3038D3C59F48091C40387FF0DC010920E
:10391000C40341110BC01092BF0308C08E3C81F458
:103920008091C40318169CF3442381F08091C50351
:103930009091C603892B09F05AC01092BE030895D6
:103940008F3C49F447FFF0CF1092C3038091C4032A
:103950008111ECCFE0CF803D19F41416ACF3E4CF25
:103960009091C503893D29F41916F4F61092C50308
:10397000DBCF8A3D19F497FFD7CFF8CF9091C603DC
:103980008B3D29F497FFD0CF1092C603CDCF8C3D4D
:1039900019F41916CCF3C8CF9FE2980F983090F421
:1039A000815D990B21E030E0B90102C0660F771FFD
:1039B0008A95E2F7CB0180959091C2038923809389
:1039C000C203B2CF8D3D31F48091C0038E7F8093CE
:1039D000C003AACF8E3D21F48091C0038D7FF7CF25
:1039E0008F3D09F0A1CF8091C0038B7FF0CF089568
:1039F0000E9485209C019091C3038091C403982B61
:103A000021F03093BD032093BC039091C5038091B6
:103A1000C603982B21F03093BB032093BA0381ECAB
:103A200093E00E94F01E089586E0E1ECF3E0DF01F0
:103A30001D928A95E9F71092BF031092BE0310926F
:103A4000C0030895FC01828181110EC08381811120
:103A50000BC08481811108C091E08581811101C072
:103A600090E0892F8170089581E0FCCFA6E0B0E05E
:103A7000ECE3FDE10C94AB2986E0E1ECF3E0DE0140
:103A8000119601900D928A95E1F71092C30310925E
:103A9000C4031092C5031092C6038B819C81892BAD
:103AA00089F08091BC039091BD030E949D20AC01E0
:103AB0009091BF039923C9F18091210284171506C3
:103AC00008F440C08D819E81892B91F08091BA03CA
:103AD0009091BB030E949D20AC019091BE0399235D
:103AE00009F46AC080911D028417150608F472C09B
:103AF000BE016F5F7F4F81EC93E00E94B31F811185
:103B000005C081EC93E00E94221D81110E94F81CE7
:103B100086E0FE013196A1ECB3E001900D928A950A
:103B2000E1F72696E3E00C94C729209122028AE06F
:103B3000289F900111242417350720F69F5F90934A
:103B4000BF0302C09F3FD1F71B81112359F00E9490
:103B50009C1B9FEF11160CF491E0899F802D11247E
:103B60008093C3031C81112359F00E949C1B9FEF7B
:103B700011160CF491E0899F802D11248093C403C9
:103B80008091C303882309F49DCF1091C4031123AE
:103B900009F498CF0E948E1B882351F08093C303B1
:103BA000812F0E948E1B882329F08093C4038ACF23
:103BB00081E0F4CF81E0F9CF20911E028AE0289FB6
:103BC000900111242417350708F092CF9F5F90933E
:103BD000BE0302C09F3FD1F71D81112359F00E94FF
:103BE000DA1B9FEF11160CF491E0899F802D1124B0
:103BF0008093C5031E81112359F00E94DA1B9FEFA9
:103C000011160CF491E0899F802D11248093C60336
:103C10008091C503882309F46BCF1091C60311234B
:103C200009F466CF0E948E1B882351F08093C50350
:103C3000812F0E948E1B882329F08093C60358CFC2
:103C400081E0F4CF81E0F9CF0F931F93CF93DF93FF
:103C5000C42FD22FFC0185818823C9F04093C9036A
:103C60000E9485209093C8038093C70380E28C0F45
:103C7000883040F4C77081E001C0880FCA95EAF728
:103C80000E94A004DF91CF911F910F910895109190
:103C9000C903141332C08091C7039091C8030E94D6
:103CA0009D20883C910548F5C0E2CD0F1D17B9F065
:103CB00080E2810F883040F4177081E001C0880FE6
:103CC0001A95EAF70E94A704C83048F481E09D2FB6
:103CD000977001C0880F9A95EAF70E94A004802F80
:103CE0000E949704C83070F6D77081E001C0880F39
:103CF000DA95EAF70E94A704C5CF80E28C0F8830DE
:103D000008F6C77081E001C0880FCA95EAF7F2CFC4
:103D10000F93DB0188519C4787309105A0F5FC018A
:103D2000E058F54D0C94962906E221EE41EE6AE149
:103D30007CE7CD010E94241E80E00F91089507E2E8
:103D400025EE45EE6BE17CE7F4CF06E221EE40EE96
:103D500068E17CE7EECF07E225EE44EE69E17CE71F
:103D6000E8CF06E221EE42EE6CE17CE7E2CF07E22B
:103D700025EE46EE6DE17CE7DCCF08E221E045EE82
:103D80006EE17CE7D6CF15968C91882319F01092BE
:103D9000C903D3CF81E0D1CF9093D0038093CF03D9
:103DA00008950E946A12811103C08091CA03089588
:103DB000E091CF03F091D003309729F00190F0818A
:103DC000E02D0995089580E00895E091CF03F091EA
:103DD000D003309721F00280F381E02D09950895FA
:103DE000E091CF03F091D003309739F022E0DC016D
:103DF0002C930680F781E02D09950895A3E0B0E0AB
:103E0000E4E0FFE10C94AC292091CD033091CE0386
:103E100028173907A1F09093CE038093CD03E0914A
:103E2000CF03F091D003309751F023E029839B8397
:103E30008A830084F185E02DCE01019609952396B1
:103E4000E2E00C94C829A3E0B0E0E9E2FFE10C94C1
:103E5000AC292091CB033091CC0328173907A1F06E
:103E60009093CC038093CB03E091CF03F091D003E8
:103E7000309751F024E029839B838A830084F18565
:103E8000E02DCE01019609952396E2E00C94C82915
:103E90004091EA015091EB019A012E5F3F4F485F3C
:103EA0005F4F80E02417350709F40895F9019191D7
:103EB0009F019923B9F38F5FF5CF882371F020918B
:103EC000EA013091EB01F9013296285F3F4F919161
:103ED000981729F0E217F307D1F780E0089581E001
:103EE00008959C01FC0132969FEF80E041914617B6
:103EF00051F09F3F19F4411101C0982F8F5F863018
:103F0000A9F79F3F09F40895290F311D97FD3A95B0
:103F1000F90162830895FC013296089621912613D7
:103F200003C0DF0111971C92E817F907B9F708954C
:103F3000682F8091EA019091EB010E94711F089512
:103F4000682F8091EA019091EB010E948B1F0895E8
:103F5000E091EA01F091EB01329686E0DF011D92DB
:103F60008A95E9F70895DC01FB0111969C91119760
:103F70008181981322C012968C911297882319F090
:103F8000928189131AC013968C911397882319F084
:103F90009381891312C015968C911597882319F077
:103FA000958189130AC014969C91992321F081E090
:103FB0002481291303C080E001C081E0817008954D
:103FC00008950E94E01F0895811106C081E080934A
:103FD000D1030E94E11F089582E0F9CF83E080932E
:103FE000D1030E94E11F08950E94E41F089581E01B
:103FF0008093D1030E94E11F08950E94F71F089546
:10400000089508950E9401200895089508950E943A
:1040100000200895CF930E9405200E94E0110E9485
:104020000620C0E08C2F0E94B110811105C0CF5F27
:10403000CA30C1F7CF91089581E0FCCF85B7806881
:1040400085BF85B7806885BF08951F921FB61F92F0
:1040500011248F939F93AF93BF938091D2038111CB
:1040600013C08091DC049091DD04A091DE04B09136
:10407000DF044196A11DB11D8093DC049093DD0403
:10408000A093DE04B093DF04BF91AF919F918F9115
:104090001F901FBE1F9018958091E404843031F169
:1040A0000E946F031092D20388E190E020E40FB6E3
:1040B000F894A895809360000FBE2093600083B7AA
:1040C000817F846083BF83B7816083BF7894889544
:1040D00083B78E7F83BF0FB6F894A8958091600058
:1040E000886180936000109260000FBE08950E9466
:1040F000F6060E947903089582E084BD93E095BDA1
:104100009AEF97BD80936E0008952FB7F894809131
:10411000DC049091DD04A091DE04B091DF042FBF98
:1041200008952FB7F8946091DC047091DD048091BC
:10413000DE049091DF042FBF08959C014FB7F894DF
:104140008091DC049091DD04A091DE04B091DF0445
:104150004FBF821B930B0895CF92DF92EF92FF9295
:104160002FB7F894C090DC04D090DD04E090DE041A
:10417000F090DF042FBFA7019601261B370B480BD9
:10418000590BCA01B901FF90EF90DF90CF900895CD
:1041900078941F921FB61F9211248F939F93AF9311
:1041A000BF938091DC049091DD04A091DE04B09176
:1041B000DF040196A11DB11D8093DC049093DD0402
:1041C000A093DE04B093DF04BF91AF919F918F91D4
:1041D0001F901FBE1F90189581E08093E00080E241
:1041E0008093D8001092C9008FE19EE40197F1F707
:1041F00000C0000087E090EBDC018093ED04909319
:10420000EE04A093EF04B093F00488E19CE00FB6B5
:10421000F894A895809360000FBE90936000FFCF44
:1042200088E19CE00FB6F894A895809360000FBEDB
:1042300090936000FFCF8EE14A9B02C08150E1F76E
:104240004A9BFECF08955A9880E28A95F1F75A9AD0
:104250000895FC013BE03A95F1F798E020E080E01A
:1042600031E040E14A95F1F7880F4A9B02C0816036
:10427000232742E04A95F1F7000040E14A95F1F723
:10428000915079F790E19A95F1F799B132E03A952A
:10429000F1F7000040E14A95F1F792FB992790F978
:1042A00092272081920F90830895A1E0B0E0EBE582
:1042B000F1E20C94A82919828C017C01E60EF11C14
:1042C0000E151F0541F481E09981911180E021963E
:1042D000E6E00C94C4290E941B21CE0101960E94A5
:1042E0002921F80181938F01EBCF529A5A9A0895B0
:1042F00052985A9AEA9AE9E6F0E080818F7C8083AE
:1043000008956150770B91E001C0990F6A95EAF723
:1043100020E031E0911108C0222391F05A9A80E206
:104320008A95F1F75A980895492F482339F05A9AF7
:10433000232740E24A95F1F79695ECCF5A98F9CFAA
:104340005A98EDCFFF920F931F93CF93DF93EC0119
:104350008C01060F111DC017D10729F4CDB7DEB7A8
:10436000E5E00C94C529F9900E94232168E08F2D87
:104370000E948121F0CF1F920F920FB60F9211244D
:104380000F931F932F933F934F935F936F937F935D
:104390008F939F93AF93BF93EF93FF93CF93DF934D
:1043A0000F92CDB7DEB719820E941B21CE01019674
:1043B0000E942921082F069506950695282F2295FB
:1043C0002570902F9570290F922F93702695269522
:1043D000920F982797708981982B09F05CC006305E
:1043E00008F059C080E18A95F1F75A9A529A82E012
:1043F0008A95F1F700C05A9888E0089F800111243F
:10440000D801A351BE4F1696ED91FC9117973097A6
:10441000A9F06091AE027091AF0214962D913C917B
:104420001597260F371F11968D919C911297680F43
:10443000791F13964C9113978C910995F801E351CC
:10444000FE4F6381662351F02091AE023091AF029E
:1044500084819581820F931F0E94A2210E942321B3
:1044600080E18A95F1F75A9852985A9A80E18A9594
:10447000F1F7F801E351FE4F6081662351F020917E
:10448000AE023091AF0281819281820F931F0E9410
:1044900055210E941B210F90DF91CF91FF91EF9149
:1044A000BF91AF919F918F917F916F915F914F914C
:1044B0003F912F911F910F910F900FBE0F901F9062
:1044C00018950F931F93CF93DF93EC0106970CF091
:1044D0004CC0F894529A5A9885E08A95F1F70000FA
:1044E0009C2F969595708C2F8570980F892F8370CF
:1044F0009695969523E0CC0FDD1F2A95E1F7980F4E
:104500008E01092B0E94232100C068E0802F0E94A9
:10451000812180E18A95F1F752985A9A4A9B1EC0F0
:1045200087E090E04A991CC0FE01E351FE4F638191
:104530006623F9F02091AE023091AF02848195811B
:10454000820F931F0E945521811113C0529A5A9ACB
:104550007894DF91CF911F910F91089500C0DECF25
:10456000019729F4529A5A9A789480E0F2CF00C0C9
:10457000D9CF0E941B2180E28A95F1F75A98529A6E
:1045800080E18A95F1F7C351DE4F6881662351F0CF
:104590002091AE023091AF0289819A81820F931FE0
:1045A0000E94A2210E942321789481E0D2CF8091A1
:1045B000DB03089508959B01BA019091E4049430BF
:1045C000E9F48F708093E9009FEF8091E8009150AB
:1045D00085FD06C085ED8A95F1F700009111F5CFB4
:1045E0008091E80085FF0AC050E040E0C9010E94C8
:1045F000D5248091E8008E778093E800089543E009
:1046000050E0BC0182E00E94DB22089546E050E0C9
:10461000BC0182E00E94DB220895CF93DF93EC017E
:1046200048E050E0BC0181E00E94DB2288E0FE010E
:10463000A3EDB3E001900D928A95E1F7DF91CF9160
:1046400008958091E304811109C00E9465260E94AB
:10465000C2268091E20084608093E2000895109267
:10466000E30408950E94F71F08956091E00481E03B
:10467000611101C080E00E94EE1F08959091E40452
:1046800081E0943009F080E06091E0040E94F41F22
:10469000089542E061EC81E00E94E12542E261EC94
:1046A00082E00E94E1259091E40481E0943009F0D9
:1046B00080E06091E0040E94E41F08958091E60488
:1046C000833009F461C030F48130D1F1823009F4D3
:1046D0009EC008958A3009F48AC08B3009F46FC0F7
:1046E000893009F050C08091E504813209F04BC057
:1046F0008091E9049091EA04029708F044C0809107
:10470000E800877F8093E8008091E80082FF37C04F
:104710009091F3008091F200029731F48091F100C2
:10472000813011F0863021F48091F1008093DB0319
:104730008091E8008B778093E8000E94152623C0C3
:104740008091E504813AF9F48091E800877F8093B5
:10475000E8008091E9049091EA04892B61F468E013
:1047600083ED93E070E00E9424258091E8008B7730
:104770008093E800089560E090E080E0F3CF8091BE
:10478000E4048111C1CF08958091E504813AD9F7FD
:104790008091E9049091EA04892BA9F78091E800BF
:1047A000877F8093E8008091E80080FFFCCF8091B4
:1047B0002D028093F1008091E8008E77BCCF80912C
:1047C000E504813201F78091E9049091EA04892B94
:1047D000D1F68091E800877F8093E8000E9415263B
:1047E0008091E70480932D020E94F606089580913F
:1047F000E504813241F68091E800877F8093E800EC
:104800000E9415268091E8048093DC03089580912E
:10481000E504813A09F0B7CF8091E800877F809363
:10482000E8008091E80080FFFCCF8091DC03C1CFDD
:1048300084B7877F84BF0FB6F894A89580916000F5
:10484000886180936000109260000FBE80E890E065
:104850000FB6F89480936100909361000FBE0E94A0
:10486000FD1F08950E9465260E94C226E2EEF0E038
:1048700080818460808378940E944129089583E236
:1048800092E00E94CC1E08958091E404853031F4BA
:104890008091E404853019F00E94772008950E94E9
:1048A0004C208091E204882399F30E940A208823F7
:1048B00079F30E94BF240E94F606EACF08959A0178
:1048C0004091EB045091EC040E9467240895492F15
:1048D00055274330510519F168F44130510509F469
:1048E00044C04230510509F445C090E080E050E0FA
:1048F00040E025C04132510549F142325105A9F746
:1049000084E490E046E254E061157105C1F08BE764
:1049100090E04BEA53E06130710589F0E6CF9927CA
:104920008130910581F0009729F00297F1F6E4E1DA
:10493000F3E002C0EAE5F3E0849190E0AF01F90111
:10494000518340830895E4E3F3E0F6CF89E090E0FB
:1049500040E753E06115710591F389E090E049E883
:1049600053E06130710559F3C0CF82E190E049E92D
:1049700053E0E5CF8BE390E04EE553E0E0CF80E1FC
:1049800089BD82E189BD09B400FEFDCF8091D800C8
:104990008F7D8093D8008091E00082608093E0005A
:1049A0008091E00081FDFCCF0895AF92BF92CF923D
:1049B000DF92FF920F931F93CF93DF936C01EB0174
:1049C0008A010E943426F82E811123C00115110599
:1049D00039F0F80180819181C81BD90BC80ED91E0E
:1049E000B12CA12C2097A9F08091E80085FD22C070
:1049F0008091E8008E778093E80001151105A1F001
:104A0000F80180819181A80EB91EB182A08285E053
:104A1000F82E8F2DDF91CF911F910F91FF90DF9096
:104A2000CF90BF90AF9008950E9434268823D1F292
:104A3000F82EEFCFF60181916F018093F10021975D
:104A4000FFEFAF1ABF0ACECFFC018091EB0490912B
:104A5000EC0486179707A0F06115710529F4909171
:104A6000E8009E779093E80090E06115710551F49D
:104A7000911108C08091E80082FF34C080E0089561
:104A8000BC01F2CF8091E4048823C1F18530C1F1EB
:104A90008091E80083FD30C08091E80082FDEACF7C
:104AA0008091E80080FFE1CF8091F3002091F20037
:104AB000382F6115710519F02830310558F091E053
:104AC0002830310509F090E02091E8002E772093FE
:104AD000E800CBCF81918093F100615071092F5F85
:104AE0003F4FE7CF8091E404882341F0853041F0C7
:104AF0008091E80083FFBECF81E0089582E00895B1
:104B000083E00895FC018091EB049091EC048617FA
:104B10009707A0F06115710529F48091E8008E7760
:104B20008093E80090E06115710551F4911108C07F
:104B30008091E80082FF35C080E00895BC01F2CF8B
:104B40008091E4048823C9F18530C9F18091E8009F
:104B500083FD31C08091E80082FDEACF8091E800BA
:104B600080FFE1CF8091F3002091F200382F611592
:104B7000710519F02830310558F091E028303105E1
:104B800009F090E08091E8008E778093E800CBCF29
:104B900084918093F1003196615071092F5F3F4FEE
:104BA000E6CF8091E404882341F0853041F0809184
:104BB000E80083FFBDCF81E0089582E0089583E09F
:104BC0000895982F973028F08F708093E90081E046
:104BD00008959093E900242F762F50E0981731F034
:104BE0007091EC002091ED005091F00021FD02C089
:104BF0009F5FE8CF3091EB003E7F3093EB00309128
:104C0000ED003D7F3093ED003091EB00316030934B
:104C1000EB007093EC002093ED005093F000209196
:104C2000EE0027FDE5CF80E008958091E50487FF41
:104C300013C08091E80082FF06C08091E8008B7766
:104C40008093E80004C08091E4048111F2CF0895BC
:104C50008091E4048823D9F38091E80080FFF8CFA5
:104C60008091E8008E77ECCF2091E4003091E50050
:104C700095E6A9012091EC00822F817020FF06C0EB
:104C80008091E80080FF06C080E008952091E80050
:104C900022FD1AC08091E404882389F0853089F0D0
:104CA0008091EB0085FD0FC02091E4003091E5007C
:104CB00042175307F9F29150E1F684E0089582E03B
:104CC000089583E0089581E008950E94D4260E940B
:104CD000DC26E0EEF0E0808181608083E8EDF0E0AA
:104CE00080818F77808319BCA7EDB0E08C918E7F97
:104CF0008C9380818F7E80831092E30408950F93BC
:104D00001F93CF93DF930E94D4260E94DC26C8ED28
:104D1000D0E088818F7788838881806888838881C4
:104D20008F7D888319BC1092E4041092E0041092E5
:104D3000E2041092E10400EE10E0F80180818B7F24
:104D4000808388818160888342E060E080E00E9407
:104D5000E125E1EEF0E080818E7F8083E2EEF0E0FD
:104D6000808181608083808188608083F801808178
:104D70008E7F8083888180618883DF91CF911F91AE
:104D80000F910895E8EDF0E080818F7E8083E7ED5C
:104D9000F0E080818160808384E082BF81E0809345
:104DA000E3040E947F260895E8EDF0E080818E7F85
:104DB00080831092E20008951092DA001092E100D0
:104DC00008951F920F920FB60F9211242F933F93C5
:104DD0004F935F936F937F938F939F93AF93BF9303
:104DE000EF93FF938091E10082FF0BC08091E2007E
:104DF00082FF07C08091E1008B7F8093E1000E94D9
:104E000040298091DA0080FF19C08091D80080FF8E
:104E100015C08091DA008E7F8093DA008091D900EE
:104E200080FF96C080E189BD82E189BD09B400FEA2
:104E3000FDCF81E08093E4040E9421238091E10072
:104E400080FF19C08091E20080FF15C08091E200D0
:104E50008E7F8093E2008091E20080618093E20087
:104E60008091D80080628093D80019BC85E080933F
:104E7000E4040E9435238091E10084FF2BC08091DF
:104E8000E20084FF27C080E189BD82E189BD89B548
:104E9000982F917080FFFBCF8091D8008F7D8093F9
:104EA000D8008091E1008F7E8093E1008091E20044
:104EB0008F7E8093E2008091E20081608093E20027
:104EC0008091E004882309F449C084E08093E404DD
:104ED0000E943E238091E10083FF29C08091E2007F
:104EE00083FF25C08091E100877F8093E10082E00D
:104EF0008093E4041092E0048091E1008E7F80931F
:104F0000E1008091E2008E7F8093E2008091E200D8
:104F100080618093E20042E060E080E00E94E12551
:104F20008091F00088608093F0000E943223FF910E
:104F3000EF91BF91AF919F918F917F916F915F9111
:104F40004F913F912F910F900FBE0F901F9018958A
:104F500019BC1092E4040E942F2370CF8091E300CB
:104F600087FD93E09093E404B3CF1F920F920FB6A6
:104F70000F9211242F933F934F935F936F937F93DF
:104F80008F939F93AF93BF93CF93DF93EF93FF9351
:104F9000D091E900DF708091EC00C82FC17080FDD6
:104FA000C0E81092E9008091F000877F8093F000C4
:104FB00078940E94F9271092E9008091F0008860AF
:104FC0008093F000CD2BCF70C093E900FF91EF915B
:104FD000DF91CF91BF91AF919F918F917F916F9111
:104FE0005F914F913F912F910F900FBE0F901F90A7
:104FF0001895AAE2B0E0EFEFF7E20C94AB2985EE4A
:1050000094E02091F100FC012193CF01F4E08D3E6A
:105010009F07B9F70E945E238091E80083FF1EC1BD
:105020008091E5049091E6049A3008F017C1E92FC9
:10503000F0E0E957F54D0C949629803899F08238C4
:1050400009F00CC18091E9048F70873008F006C127
:105050008093E9008091EB0085FB882780F910920E
:10506000E90006C08091E1049091E2049111826010
:105070009091E800977F9093E8008093F100109260
:10508000F1008091E8008E77E5C0882309F4D3C051
:10509000823009F0E3C08091E7048111D6C080918D
:1050A000E9048F702FEF280F263008F0D7C08093C7
:1050B000E9002091EB0020FFC8C0933031F48091CB
:1050C000EB0080628093EB00C0C09091EB00906198
:1050D0009093EB0021E030E001C0220F8A95EAF7BF
:1050E0002093EA001092EA008091EB008860EACFFA
:1050F0008111B4C01091E7041F778091E30080789C
:10510000812B8093E3008091E800877F8093E80003
:105110000E9415268091E80080FFFCCF8091E3007B
:1051200080688093E30082E0111183E08093E404BF
:1051300095C08058823008F091C08091E70490912A
:10514000E8048C3D23E09207A1F583E08A838AE29C
:1051500089834FB7F894DE01139620E03EE051E2D8
:10516000E32FF0E050935700E49120FF03C0E29555
:10517000EF703F5FEF708E2F90E0EA30C0F0C7967F
:105180008D939D932F5F243159F74FBF8091E80095
:10519000877F8093E8006AE270E0CE0101960E946A
:1051A00024258091E8008B778093E80057C0C09653
:1051B000E7CF6091E9047091EA04AE014F5F5F4F61
:1051C0000E945F24BC01892B09F448C09091E8003B
:1051D000977F9093E80089819A810E948225E1CF90
:1051E0008038E1F58091E800877F8093E800809126
:1051F000E0048093F10045CF811130C09091E70425
:10520000923060F58091E800877F8093E80090936A
:10521000E0040E9415268091E004882311F084E0C8
:1052200005C08091E30087FDFACF81E08093E4041C
:105230000E94492313C08091E704813079F481E012
:10524000933009F080E08093E2041092E9008091AD
:10525000E800877F8093E8000E9415268091E8008F
:1052600083FF0AC08091E800877F8093E8008091E7
:10527000EB0080628093EB00AA96E3E00C94C729D0
:105280000895CF938091E4048823A1F0C091E900B0
:10529000CF709091EC00892F817090FD80E8C82B31
:1052A0001092E9008091E80083FD0E94F927CF70F9
:1052B000C093E900CF9108950E9465261092E404FE
:1052C0000895E8EDF0E08081806180838AE18A952D
:1052D000F1F700C08091D90081700895AA1BBB1B13
:1052E00051E107C0AA1FBB1FA617B70710F0A61BE6
:1052F000B70B881F991F5A95A9F780959095BC0107
:10530000CD01089597FB072E16F4009407D077FD82
:1053100009D00E946E2907FC05D03EF49095819536
:105320009F4F0895709561957F4F0895EE0FFF1F71
:105330000590F491E02D09942F923F924F925F9245
:105340006F927F928F929F92AF92BF92CF92DF9295
:10535000EF92FF920F931F93CF93DF93CDB7DEB7FA
:10536000CA1BDB0B0FB6F894DEBF0FBECDBF09948E
:105370002A88398848885F846E847D848C849B84E5
:10538000AA84B984C884DF80EE80FD800C811B81F3
:10539000AA81B981CE0FD11D0FB6F894DEBF0FBE22
:1053A000CDBFED010895FB01DC0104C08D9101909A
:1053B000801921F441505040C8F7881B990B08957B
:1053C000FB01DC0102C001900D9241505040D8F722
:1053D0000895DC01CB01FC01F999FECF06C0F2BDB6
:1053E000E1BDF89A319600B40D9241505040B8F7A3
:1053F0000895F999FECF92BD81BDF89A992780B59D
:105400000895A8E1B0E042E050E00C94EB29DC0103
:10541000A40FB51F4150504048F0CB01840F951F99
:105420002E910E94182A41505040D0F70895262FFF
:10543000F999FECF92BD81BDF89A019700B402168A
:1054400039F01FBA20BD0FB6F894FA9AF99A0FBE38
:1054500008950396272F0E94182A0E94172A252FA5
:105460000E94182A242F0C94182A0196272F0E9494
:10547000182A0C94172AF894FFCFEF04EF043F0585
:105480003F05A405C0051E051E05C50536064506D3
:105490004506031A0A1A111A161A1B1A201A251A77
:1054A0002A1A2F1A341A391A3E1A051A051A051A19
:1054B000051A051A051A051A051A051A0A1B7E1B74
:1054C000121BDC1AE01A161BE41A1A1B261BF01A10
:1054D000771BF41A2A1BF81A2E1B561BFC1A321BB8
:1054E0005D1B021B381B401BE81A1E1BEC1A221BFB
:1054F000061B3C1B4C1B661B751BD61A0E1B851B03
:10550000A51EAB1E941E9F1EB11EB71EBD1E1D28DC
:1055100045282E2945282E29782899282E29F02833
:02552000FC2865
:105522000007080F10140106090E111502050A0DD5
:10553200121603040B0C1317FF1C181A1B191D2437
:10554200252C2D311E23262B2E321F22272A2F33C4
:10555200202128293034FF39353738360000001031
:1055620000200030143014201410140029002910D7
:10557200292029303D303D203D103D005100511081
:1055820051205130660066106620663066405140F8
:105592003D3851386638E000E010E020E030CC3091
:1055A200CC20CC10CC00B700B710B720B730A33056
:1055B200A320A310A3008E008E108E208E307A00BE
:1055C2007A107A207A307A408E40A3388E387A3830
:1055D2000202020204040404040404040404040491
:1055E2000404040404040404020202020202020289
:1055F200020404040404040404040404040404046B
:105602000404040404020202020230030100000046
:105612000100000000000000050100000005060076
:105622000000000000040B000000000000090F0051
:1056320000000000000300FF00FFFF280850011EC9
:105642000A1401D7220D23DA220623FF220100FFCA
:1056520032E200E900EA00B500B600B700CD0083EF
:1056620001CC008A01920194012102230224022525
:1056720002260227022A02B300B4006F0070009FC4
:1056820001CB019F02A002818283E200E900EA00CD
:10569200B500B600B700CD008301CC008A019201AB
:1056A20094012102230224022502260227022A0251
:1056B200B300B4006F0070009F01CB019F02A002F3
:1056C200818283F6F53697C634F4F766943558032B
:0856D20086199619CE198919F9
:00000001FF
